:100000000C942A000C94C6010C9447000C94C9036C
:100010000C9447000C9447000C9447000C94470044
:100020000C9447000C9447000C9447000C94470034
:100030000C9447000C9447000C9447000C94470024
:100040000C9447000C9447000C9447000C94470014
:100050000C94470011241FBECFE5D8E0DEBFCDBF12
:1000600011E0A0E6B0E0E6E5F8E002C005900D92F0
:10007000A436B107D9F711E0A4E6B1E001C01D92A2
:10008000A73CB107E1F70E94FC020C9429040C94F0
:10009000000085BB91989498939883E08A95F1F736
:1000A0000000939A93E09A95F1F7000087EA91E6B1
:1000B0000197F1F700C0000008958FEF84BB15BAD7
:1000C0008B9A899A8C9A939A88E30E9449008CE0D3
:1000D0000E944900089585BB9198949A939883E073
:1000E0008A95F1F70000939A93E09A95F1F7000052
:1000F00087EA91E60197F1F700C0000008956623B2
:1001000021F480580E944900089580540E944900BB
:100110000895CF93DF93EC018881882331F02196F5
:100120000E946B0089918823D9F7DF91CF910895C0
:1001300081E00E9449000895CF93DF93EA010E9475
:100140007F00CE010E948900DF91CF910895109227
:100150007401009771F0E4E7F1E02AE030E0B901C2
:100160000E941504805D8293862F972F0097B9F720
:1001700002C0E0E6F0E08E2F9F2F0895CF93DF932B
:10018000C5E6D0E080E060E0AE010E949C0080E027
:1001900061E0AE010E949C00DF91CF9108950F9322
:1001A0001F93CF93DF931092B4011092B30107EB2A
:1001B00011E08FEC97E00197F1F700C00000C091CB
:1001C000B301D091B4010E94FB03C00FD11F8883FB
:1001D0008091B3019091B40101969093B401809302
:1001E000B301853091052CF387EB91E0DF91CF913E
:1001F0001F910F910895CF93DF93BC011092B0012E
:100200001092AF011092780110927701C9E1D1E00C
:100210001092B4011092B30140E050E0FB01E40FF2
:10022000F51F80917701909178019C01220F331F77
:10023000220F331F820F931F840F951FDE01A80F1B
:10024000B91F90818C91981779F48FEC97E0019702
:10025000F1F700C000008091AF019091B0010196CC
:100260009093B0018093AF014091B3015091B401DC
:100270004F5F5F4F5093B4014093B3014530510538
:100280006CF28091AF019091B0018430910529F416
:10029000809177019091780111C01092B001109275
:1002A000AF01809177019091780101969093780148
:1002B00080937701853091050CF4AACFDF91CF911F
:1002C0000895CF93DF930E94BE0080E060E048E78E
:1002D00050E00E949C00C9E7D1E081E061E0AE01FE
:1002E0000E949C008FEF99E6A8E181509040A040C9
:1002F000E1F700C000000E94980080E060E042E862
:1003000050E00E949C00AE01465F5F4F81E061E0DB
:100310000E949C008FEF99E6A8E181509040A04098
:10032000E1F700C000000E94980080E060E04DE826
:1003300050E00E949C00AE014C5E5F4F81E061E0A6
:100340000E949C008FEF99E6A8E181509040A04068
:10035000E1F700C000000E94980080E060E047E9FB
:1003600050E00E949C00AE01425E5F4F81E061E080
:100370000E949C008FEF90E7A2E081509040A04047
:10038000E1F700C00000DF91CF9108951F920F9216
:100390000FB60F9211242F933F934F935F936F9358
:1003A0007F938F939F93AF93BF93EF93FF930E949D
:1003B0006101FF91EF91BF91AF919F918F917F91DB
:1003C0006F915F914F913F912F910F900FBE0F90C2
:1003D0001F9018958130910509F447C0823091052E
:1003E0001CF4009751F0E8C08230910509F475C003
:1003F0008330910509F0E0C0A8C00E94BE0080E0F3
:1004000060E042EA50E00E949C0081E061E042E34B
:1004100051E00E949C008FEF94E3ACE0815090404B
:10042000A040E1F700C000000E94BE008091AD0135
:100430009091AE0101969093AE018093AD01813011
:10044000910509F0CAC0E2E3F1E0A9E7B1E0CF010C
:100450000A9621912D93E817F907D9F78AE090E0E1
:100460009093B4018093B30108950E94BE0080E090
:1004700060E040EB50E00E949C0081E061E04CE3D2
:1004800051E00E949C008FEF94E3ACE081509040DB
:10049000A040E1F700C000000E94BE008091AB01C7
:1004A0009091AC0101969093AC018093AB018130A7
:1004B000910509F092C0ECE3F1E0A3E8B1E0CF01CF
:1004C0000A9621912D93E817F907D9F78AE090E071
:1004D0009093B4018093B30108950E94BE0080E020
:1004E00060E04FEB50E00E949C0081E061E046E458
:1004F00051E00E949C008FEF94E3ACE0815090406B
:10050000A040E1F700C000000E94BE008091BF0142
:100510009091C00101969093C0018093BF018130FA
:10052000910509F05AC0E6E4F1E0ADE8B1E0CF0191
:100530000A9621912D93E817F907D9F78AE090E000
:100540009093B4018093B30108950E94BE0080E0AF
:1005500060E04DEC50E00E949C0081E061E040E5ED
:1005600051E00E949C008FEF94E3ACE081509040FA
:10057000A040E1F700C000000E94BE008091C301CE
:100580009091C40101969093C4018093C30181307E
:10059000910519F5E0E5F1E0A7E9B1E0CF010A9690
:1005A00021912D93E817F907D9F78AE090E090930D
:1005B000B4018093B301089580E060E04CED50E019
:1005C0000E949C008FEF90E7A2E081509040A040F5
:1005D000E1F700C000000E94BE0008958F988A983D
:1005E000BA98C29A85B7836085BF8BB780668BBF88
:1005F0008FB780688FBF08950E945D000E94ED0351
:100600000E94EE02CDEED0E080E060E0AE010E94FC
:100610009C000E94CF00282F8093C1019093C201BB
:100620008FEC97E00197F1F700C00000822F9091C6
:10063000C201E22FF92FDF010D900020E9F79D01A3
:10064000265030402E173F0721F70E94FB00909361
:100650001801809317010E94EA01D6CF809175019D
:1006600090917601009709F093C08091AD0190912F
:10067000AE018130910549F48091B5019091B601A8
:1006800001969093B6018093B5018091AB01909152
:10069000AC018130910549F48091B5019091B6018A
:1006A00001969093B6018093B5018091BF0190911E
:1006B000C0018130910549F48091B5019091B60156
:1006C00001969093B6018093B5018091C3019091FA
:1006D000C4018130910549F48091B5019091B60132
:1006E00001969093B6018093B5010E94BE0080E010
:1006F00060E04DEF50E00E949C008091B501909128
:10070000B6010E94A700AC019093B2018093B101A1
:1007100081E061E00E949C008FEF94E3ACE08150A7
:100720009040A040E1F700C000000E94BE00209170
:10073000B5013091B60184E090E0821B930B909359
:10074000C6018093C5010E94A7009093BE018093CB
:10075000BD0180E060E04CE051E00E949C004091CF
:10076000BD015091BE0181E061E00E949C001092A9
:10077000B6011092B5011092C6011092C501809188
:1007800075019091760101969093760180937501A1
:1007900008951F920F920FB60F9211242F933F933B
:1007A0004F935F936F937F938F939F93AF93BF9379
:1007B000EF93FF930E942E03FF91EF91BF91AF91B2
:1007C0009F918F917F916F915F914F913F912F9169
:1007D0000F900FBE0F901F90189583E389B910BC3E
:1007E0008AB188618AB980B5866080BD08955D9BB5
:1007F000FECF8CB908955F9BFECF8CB108950F9307
:100800001F93CF938C01FC018081882351F0C0E0BD
:100810000E94F703CF5FF801EC0FF11D8081882360
:10082000B9F7CF911F910F910895AA1BBB1B51E1FE
:1008300007C0AA1FBB1FA617B70710F0A61BB70B50
:10084000881F991F5A95A9F780959095BC01CD01F5
:060850000895F894FFCFAB
:100856007A65726F00202020202020202020202072
:1008660020202020202020006669727374206F6E7D
:1008760065007365636F6E64206F6E6500746869EA
:100886007264206F6E6500666F75727468206F6E95
:10089600650066697273742073747564656E74009E
:1008A6007365636F6E642073747564656E7400742B
:1008B600686972642073747564656E7400666F751A
:1008C6007274682073747564656E740077656C6302
:1008D6006F6D6520656E74657220696400706C6565
:1008E60061736520656E7465722069640061747455
:1008F600656E64616E6365206E756D006162736519
:100906006E74206E756D000A00323031340032305C
:100916003135003230313600323031370032303145
:1009260038006D6F61746173656D00006B6F737471
:100936006100000000006D6F68616D656400000075
:1009460061686D65640000000000616C690000006C
:04095600000000009D
:00000001FF
