:100000000C942A000C946F020C9447000C94A305E6
:100010000C9447000C9447000C9447000C94470044
:100020000C9447000C9447000C9447000C94470034
:100030000C9447000C9447000C9447000C94470024
:100040000C9447000C9447000C9447000C94470014
:100050000C94470011241FBECFE5D8E0DEBFCDBF12
:1000600012E0A0E6B0E0EEEEFCE002C005900D92DA
:10007000A834B107D9F713E0A8E4B2E001C01D929B
:10008000A331B107E1F70E943B040C9475060C9470
:10009000000085BB91989498939883E08A95F1F736
:1000A0000000939A93E09A95F1F7000087EA91E6B1
:1000B0000197F1F700C0000008958FEF84BB15BAD7
:1000C0008B9A899A8C9A939A88E30E9449008CE0D3
:1000D0000E944900089585BB9198949A939883E073
:1000E0008A95F1F70000939A93E09A95F1F7000052
:1000F00087EA91E60197F1F700C0000008956623B2
:1001000021F480580E944900089580540E944900BB
:100110000895CF93DF93EC018881882331F02196F5
:100120000E946B0089918823D9F7DF91CF910895C0
:1001300081E00E9449000895CF93DF93EA010E9475
:100140007F00CE010E948900DF91CF910895109227
:100150005802009771F0E8E5F2E02AE030E0B901DA
:100160000E943F06805D8293862F972F0097B9F7F4
:1001700002C0E0E6F0E08E2F9F2F0895CF93DF932B
:10018000C5E6D0E080E060E0AE010E949C0080E027
:1001900061E0AE010E949C00DF91CF9108950F9322
:1001A0001F93CF93DF930E9425068230E1F71092D0
:1001B000E6021092E502C0E0D0E00BEE12E00E94F1
:1001C0002506C00FD11F8883C091E502D091E602B9
:1001D0002196D093E602C093E502CC30D1057CF3A2
:1001E0008FEC97E00197F1F700C000000E94BE007D
:1001F00080E060E048E750E00E949C008FEF94E3CD
:10020000ACE081509040A040E1F700C000000E94A7
:10021000BE00CBEED2E080E060E0AE010E949C0028
:100220008FEF94E3ACE081509040A040E1F700C034
:100230000000CE01DF91CF911F910F910895CF93D0
:10024000DF93BC011092DE021092DD021092600278
:1002500010925F02C9E3D1E01092E6021092E5022B
:1002600040E050E0FB01E40FF51F80915F029091A8
:1002700060029C01220F331F820F931F9C01220FEB
:10028000331F220F331F820F931F880F991F840F74
:10029000951FDE01A80FB91F90818C91981779F4F2
:1002A0008FEC97E00197F1F700C000008091DD022C
:1002B0009091DE0201969093DE028093DD024091E0
:1002C000E5025091E6024F5F5F4F5093E602409384
:1002D000E5024C30510534F28091DD029091DE024E
:1002E0008C30910529F480915F029091600211C0D9
:1002F0001092DE021092DD0280915F029091600206
:1003000001969093600280935F02853091050CF412
:10031000A3CFDF91CF910895CF93DF9380915902BE
:1003200090915A02009709F0D7C08091DB0290911A
:10033000DC020097C9F48091D9029091DA0200970B
:1003400099F480910B0390910C03009769F48091CC
:100350000F0390911003009739F48091E702909178
:10036000E802009709F4AFC00E94BE0080E060E0A0
:1003700041E850E00E949C008FEF94E3ACE0815094
:100380009040A040E1F700C000000E94BE00C1E61E
:10039000D2E080E060E0AE010E949C008FEF94E329
:1003A000ACE081509040A040E1F700C000000E9406
:1003B000980080E060E04BE850E00E949C008FEFE6
:1003C00094E3ACE081509040A040E1F700C0000011
:1003D0000E94BE00AE01445F5F4F80E060E00E947B
:1003E0009C008FEF94E3ACE081509040A040E1F797
:1003F00000C000000E94980080E060E046E950E004
:100400000E949C008FEF94E3ACE081509040A040AC
:10041000E1F700C000000E94BE00AE01485E5F4FE1
:1004200080E060E00E949C008FEF94E3ACE081509C
:100430009040A040E1F700C000000E94980080E0DA
:1004400060E040EA50E00E949C008FEF94E3ACE053
:1004500081509040A040E1F700C000000E94BE0023
:10046000AE014C5D5F4F80E060E00E949C008FEF2A
:1004700094E3ACE081509040A040E1F700C0000060
:100480000E94980080E060E04BEA50E00E949C00EF
:100490008FEF94E3ACE081509040A040E1F700C0C2
:1004A00000000E94BE00AE01405D5F4F80E060E052
:1004B0000E949C008FEF94E3ACE081509040A040FC
:1004C000E1F700C000008091590290915A02019614
:1004D00090935A0280935902DF91CF9108951F9211
:1004E0000F920FB60F9211242F933F934F935F9368
:1004F0006F937F938F939F93AF93BF93EF93FF93EC
:100500000E948C01FF91EF91BF91AF919F918F91CC
:100510007F916F915F914F913F912F910F900FBEFF
:100520000F901F9018958230910509F4A5C0833073
:1005300091053CF4009771F08130910509F076C186
:1005400052C08330910509F4E0C08430910509F070
:100550006DC124C10E94BE00D09AD89A80E060E0AC
:1005600045EB50E00E949C008FEF94E3ACE081509B
:100570009040A040E1F700C000000E94BE0080E073
:1005800060E04FEC51E00E949C008FEF94E3ACE000
:1005900081509040A040E1F700C00000D8980E9430
:1005A000BE008091DB029091DC028130910549F020
:1005B00001969093DC028093DB028130910509F073
:1005C0004BC1EFECF1E0A1E6B2E0CF010C96219136
:1005D0002D93E817F907D9F78CE090E09093E602A5
:1005E0008093E50208950E94BE00D09AD89A80E0D8
:1005F00060E043EC50E00E949C008FEF94E3ACE09D
:1006000081509040A040E1F700C000000E94BE0071
:1006100080E060E04BED51E00E949C008FEF94E39E
:10062000ACE081509040A040E1F700C00000D898B5
:100630000E94BE008091D9029091DA02813091052A
:1006400049F001969093DA028093D90281309105A6
:1006500009F002C1EBEDF1E0ADE6B2E0CF010C969E
:1006600021912D93E817F907D9F78CE090E090934A
:10067000E6028093E50208950E94BE00D09AD89ABF
:1006800080E060E042ED50E00E949C008FEF94E338
:10069000ACE081509040A040E1F700C000000E9413
:1006A000BE0080E060E047EE51E00E949C008FEFCA
:1006B00094E3ACE081509040A040E1F700C000001E
:1006C000D8980E94BE0080910B0390910C0381305A
:1006D000910549F0019690930C0380930B038130B0
:1006E000910509F0B9C0E7EEF1E0A9E7B2E0CF016A
:1006F0000C9621912D93E817F907D9F78CE090E03B
:100700009093E6028093E50208950E94BE00D09A7D
:10071000D89A80E060E040EE50E00E949C008FEFAD
:1007200094E3ACE081509040A040E1F700C00000AD
:100730000E94BE0080E060E043EF51E00E949C0018
:100740008FEF94E3ACE081509040A040E1F700C00F
:100750000000D8980E94BE0080910F039091100372
:100760008130910549F001969093100380930F0317
:100770008130910509F070C0E3EFF1E0A5E8B2E047
:10078000CF010C9621912D93E817F907D9F78CE04A
:1007900090E09093E6028093E50208950E94BE00E7
:1007A000D09AD89A80E060E04FEE50E00E949C0022
:1007B0008FEF94E3ACE081509040A040E1F700C09F
:1007C00000000E94BE0080E060E04FEF51E00E9418
:1007D0009C008FEF94E3ACE081509040A040E1F7A3
:1007E00000C00000D8980E94BE008091E70290915E
:1007F000E8028130910541F001969093E8028093E0
:10080000E7028130910541F5EFEFF1E0A1E9B2E0B7
:10081000CF010C9621912D93E817F907D9F78CE0B9
:1008200090E09093E6028093E50208950E94BE0056
:10083000D19AD99A80E060E04DEF50E00E949C0090
:100840008FEF94E3ACE081509040A040E1F700C00E
:100850000000D9980E94BE0008958F988A98BA988F
:10086000C29A85B7836085BF8BB780668BBF8FB711
:1008700080688FBF0895D7980E945D0060E875E298
:1008800080E090E00E94F2050E942D0481E090E05B
:100890009093E0028093DF02C6E0D1E0CF9BFECFD1
:1008A0000E94BE0080E060E0AE010E949C000E94B9
:1008B000CF00282F80930D0390930E038FEC97E0C9
:1008C0000197F1F700C00000822F90910E03E22FF4
:1008D000F92FDF010D900020E9F79D012D503040E8
:1008E0002E173F0721F70E941F0190933801809334
:1008F00037010E949302D2CF8091DF029091E002F3
:10090000009709F41FC18091DB029091DC020097EF
:10091000E9F42091D9023091DA0221153105B1F4C0
:1009200020910B0330910C032115310579F42091AE
:100930000F03309110032115310541F42091E70296
:100940003091E8022115310509F4C1C020915B0204
:1009500030915C022115310509F0F4C08130910518
:1009600049F48091E9029091EA0201969093EA029B
:100970008093E9028091D9029091DA028130910549
:1009800049F48091E9029091EA0201969093EA027B
:100990008093E90280910B0390910C0381309105C3
:1009A00049F48091E9029091EA0201969093EA025B
:1009B0008093E90280910F0390911003813091059B
:1009C00049F48091E9029091EA0201969093EA023B
:1009D0008093E9028091E7029091E80281309105CD
:1009E00049F48091E9029091EA0201969093EA021B
:1009F0008093E9020E94BE0080E060E046E151E0A1
:100A00000E949C008091E9029091EA020E94A70056
:100A10009093E4028093E3028FEF94E3ACE0815083
:100A20009040A040E1F700C000000E94BE0040914D
:100A3000E3025091E40280E060E00E949C008FEFAE
:100A400094E3ACE081509040A040E1F700C000008A
:100A50000E94BE002091E9023091EA0285E090E018
:100A6000821B930B90931203809311030E94A700A3
:100A700090930A038093090380E060E045E251E02F
:100A80000E949C008FEF94E3ACE081509040A04026
:100A9000E1F700C000000E94BE00409109035091A0
:100AA0000A0380E060E00E949C001092EA0210922B
:100AB000E902109212031092110380915B0290914F
:100AC0005C02019690935C0280935B0208950E9401
:100AD000BE0080E060E046E151E00E949C008FEFA4
:100AE00094E3ACE081509040A040E1F700C00000EA
:100AF0000E94BE0080E060E040E351E00E949C0064
:100B00008FEF94E3ACE081509040A040E1F700C04B
:100B100000000E94BE0080E060E045E251E00E94DB
:100B20009C008FEF94E3ACE081509040A040E1F74F
:100B300000C000000E94BE0080E060E045E351E09C
:100B40000E949C0008951F920F920FB60F921124DD
:100B50002F933F934F935F936F937F938F939F93C5
:100B6000AF93BF93EF93FF930E947C04FF91EF91AB
:100B7000BF91AF919F918F917F916F915F914F91B5
:100B80003F912F910F900FBE0F901F90189587E007
:100B900089B910BC8AB188618AB980B5866080BD88
:100BA00008955D9BFECF8CB9089502C0CF9B02C013
:100BB0005F9BFCCF8CB108950F931F93CF938C0153
:100BC000FC018081882351F0C0E00E94D105CF5FF5
:100BD000F801EC0FF11D80818823B9F7CF911F91A7
:100BE0000F9108950F931F93DC01CB012AB1286167
:100BF0002AB920B5266820BD880F991FAA1FBB1FE0
:100C0000880F991FAA1FBB1F9C01AD01220F331F24
:100C1000441F551F220F331F441F551F60E072E110
:100C20008AE790E00E94530689019A01802F815043
:100C300089B90150104020403040012F122F232F3E
:100C4000332700BD1F910F91089502C0CF9B02C0B2
:100C50005F9BFCCF8CB108958CB95D9BFECF08954E
:100C6000CF93DF93EC018881882331F021960E9495
:100C70002C0689918823D9F7DF91CF910895AA1B7B
:100C8000BB1B51E107C0AA1FBB1FA617B70710F077
:100C9000A61BB70B881F991F5A95A9F780959095A9
:100CA000BC01CD010895A1E21A2EAA1BBB1BFD01B8
:100CB0000DC0AA1FBB1FEE1FFF1FA217B307E4073B
:100CC000F50720F0A21BB30BE40BF50B661F771F93
:100CD000881F991F1A9469F7609570958095909573
:0E0CE0009B01AC01BD01CF010895F894FFCF38
:100CEE007A65726F002020202020202020202020D6
:100CFE002020202020202000434F44452069733AB5
:100D0E00006669727374206F6E65007365636F6E33
:100D1E0064206F6E65007468697264206F6E650082
:100D2E00666F75727468206F6E65006669667468AA
:100D3E00206F6E65006669727374207374756465D6
:100D4E006E74007365636F6E642073747564656E84
:100D5E00740074686972642073747564656E7400CF
:100D6E00666F757274682073747564656E74006650
:100D7E00696674682073747564656E740077726F3B
:100D8E006E6720696400706C6561736520656E74B2
:100D9E00657220494400617474656E64616E6365AA
:100DAE00206E756D00616273656E74206E756D00D8
:100DBE007A65726F0035000A0031343030364434B3
:100DCE0046373834450000000000000000000000E7
:100DDE000000000000000031343030364435393523
:100DEE004437440000000000000000000000000036
:100DFE000000000000313430303644454539323081
:100E0E00350000000000000000000000000000009F
:100E1E00000000313430303644453831423841001C
:100E2E0000000000000000000000000000000000B4
:100E3E00003134303036443630373536430000001A
:100E4E00000000000000000000000000000000464E
:100E5E0061777A790000000000000048656E6461D9
:100E6E007779000000000045736C616D0000000092
:100E7E00000000416264616C6C616800000000411A
:100E8E006264656C666174616800000000000000B9
:100E9E000000000000000000000000000000000044
:100EAE000000000000000000000000000000000034
:100EBE000000000000000000000000000000000024
:080ECE0000000000000000001C
:00000001FF
