:100000000C942A000C943F000C943F000C943F0089
:100010000C943F000C943F000C943F000C943F0064
:100020000C943F000C943F000C943F000C943F0054
:100030000C943F000C943F000C943F000C943F0044
:100040000C943F000C943F000C943F000C943F0034
:100050000C943F0011241FBECFE5D8E0DEBFCDBF1A
:1000600010E0A0E6B0E0E4E0F3E002C005900D92FD
:10007000A636B107D9F70E9441000C9480010C9478
:100080000000CF92DF92EF92FF920F931F93DF93C6
:10009000CF93CDB7DEB72F970FB6F894DEBF0FBE64
:1000A000CDBF60E875E280E090E00E941C010E94F4
:1000B000D0000E94180180E060E00E94EE0080E61F
:1000C00090E00E94030100E010E07E010894E11C32
:1000D000F11CCC24DD2408C00E944701F701E00F89
:1000E000F11F80830F5F1F4F0C301105ACF38AE1C5
:1000F0008A95F1F700C080E061E00E94EE00C70140
:100100000E9403018601F0CF9BB3282F207F9F70B0
:10011000922B9BBBDC98DB9A92E09A95F1F700C09A
:10012000DB98E7ECF0E03197F1F700C000009BB3FB
:100130008295807F9F70892B8BBBDB9AF2E0FA95CA
:10014000F1F700C0DB988FE99FE00197F1F700C05D
:10015000000008959BB3282F207F9F70922B9BBB9C
:10016000DC9ADB9A92E09A95F1F700C0DB98E7EC15
:10017000F0E03197F1F700C000009BB38295807FDB
:100180009F70892B8BBBDB9AF2E0FA95F1F700C0E8
:10019000DB988FE99FE00197F1F700C00000089518
:1001A0008FEF8ABB8FEF91EEA4E081509040A0408A
:1001B000E1F700C0000083E30E94840082E30E9414
:1001C000840088E20E9484008CE00E94840081E028
:1001D0000E94840082E80E9484000895DF93CF93F8
:1001E00000D0CDB7DEB790E8998390EC9A83FE01FA
:1001F000E60FF11D9181890F0E9484000F900F90EE
:10020000CF91DF9108951F93CF93DF93EC01888105
:10021000882351F010E00E94AA001F5FFE01E10F49
:10022000F11D80818823B9F7DF91CF911F91089547
:1002300081E00E94840008952AB128612AB920B57E
:10024000266820BD9B01AC01220F331F441F551FA0
:10025000220F331F441F551F220F331F441F551FEA
:10026000220F331F441F551F60E072E18AE790E0C0
:100270000E945E01822F815089B921503040404058
:100280005040232F342F452F552720BD08955F9BC5
:10029000FECF8CB108958CB95D9BFECF0895CF93AE
:1002A000DF93EC018881882331F021960E944B0175
:1002B00089918823D9F7DF91CF910895A1E21A2E71
:1002C000AA1BBB1BFD010DC0AA1FBB1FEE1FFF1FFA
:1002D000A217B307E407F50720F0A21BB30BE40B4A
:1002E000F50B661F771F881F991F1A9469F7609591
:1002F0007095809590959B01AC01BD01CF0108954B
:04030000F894FFCF9F
:06030400524649443A0094
:00000001FF
