:100000000C942A000C9447000C9447000C94470071
:100010000C9447000C9447000C9447000C94470044
:100020000C9447000C9447000C9447000C94470034
:100030000C9447000C9447000C9447000C94470024
:100040000C9447000C9447000C9447000C94470014
:100050000C94470011241FBECFE5D8E0DEBFCDBF12
:1000600010E0A0E6B0E0E0E4F4E002C005900D92FC
:10007000AE37B107D9F710E0AEE7B0E001C01D928E
:10008000AF38B107E1F70E9449000C941E020C94AE
:100090000000CF92DF92EF92FF920F931F93DF93B6
:1000A000CF93CDB7DEB72F970FB6F894DEBF0FBE54
:1000B000CDBF60E875E280E090E00E94A6010E945A
:1000C0009C000E94A20180E060E040E650E00E94B7
:1000D000DB0000E010E07E010894E11CF11CCC2460
:1000E000DD2408C00E94D101F701E00FF11F8083D9
:1000F0000F5F1F4F0C301105ACF38AE18A95F1F7C1
:1001000000C080E061E0A7010E94DB008601F2CF21
:100110008BBB91989498939882E08A95F1F700C0F0
:10012000939A92E09A95F1F700C08FE19EE40197CF
:10013000F1F700C0000008958FEF8ABB1BBA8B9ABD
:10014000899A8C9A939A88E30E9488008CE00E9496
:10015000880008958BBB9198949A939882E08A9531
:10016000F1F700C0939A92E09A95F1F700C08FE101
:100170009EE40197F1F700C000000895662321F482
:1001800080580E948800089580540E948800089535
:10019000CF93DF93EC018881882331F021960E9470
:1001A000AA0089918823D9F7DF91CF91089581E042
:1001B0000E9488000895CF93DF93EA010E94BE0059
:1001C000CE010E94C800DF91CF91089510928E0059
:1001D000009771F0EEE8F0E02AE030E0B9010E940B
:1001E000E801805D8293862F972F0097B9F702C0B0
:1001F000E6E6F0E08E2F9F2F0895CF93DF93CBE6B6
:10020000D0E080E060E0AE010E94DB0080E061E0D1
:10021000AE010E94DB00DF91CF9108959BB3282FA0
:10022000207F9F70922B9BBBDC98DB9A92E09A9583
:10023000F1F700C0DB98E7ECF0E03197F1F700C090
:1002400000009BB38295807F9F70892B8BBBDB9ACC
:10025000F2E0FA95F1F700C0DB988FE99FE0019793
:10026000F1F700C0000008959BB3282F207F9F70F6
:10027000922B9BBBDC9ADB9A92E09A95F1F700C037
:10028000DB98E7ECF0E03197F1F700C000009BB39A
:100290008295807F9F70892B8BBBDB9AF2E0FA9569
:1002A000F1F700C0DB988FE99FE00197F1F700C0FC
:1002B000000008958FEF8ABB8FEF91EEA4E081508C
:1002C0009040A040E1F700C0000083E30E940E01CF
:1002D00082E30E940E0188E20E940E018CE00E94DF
:1002E0000E0181E00E940E0182E80E940E01089535
:1002F000DF93CF9300D0CDB7DEB790E8998390EC31
:100300009A83FE01E60FF11D9181890F0E940E0173
:100310000F900F90CF91DF9108951F93CF93DF93AC
:10032000EC018881882351F010E00E9434011F5FA6
:10033000FE01E10FF11D80818823B9F7DF91CF9194
:100340001F91089581E00E940E0108952AB128614D
:100350002AB920B5266820BD9B01AC01220F331FAE
:10036000441F551F220F331F441F551F220F331FD9
:10037000441F551F220F331F441F551F60E072E1B9
:100380008AE790E00E94FC01822F815089B92150B8
:10039000304040405040232F342F452F552720BD5B
:1003A00008955F9BFECF8CB108958CB95D9BFECF05
:1003B0000895CF93DF93EC018881882331F0219653
:1003C0000E94D50189918823D9F7DF91CF910895B3
:1003D000AA1BBB1B51E107C0AA1FBB1FA617B7076B
:1003E00010F0A61BB70B881F991F5A95A9F7809587
:1003F0009095BC01CD010895A1E21A2EAA1BBB1B4A
:10040000FD010DC0AA1FBB1FEE1FFF1FA217B307E0
:10041000E407F50720F0A21BB30BE40BF50B661FF6
:10042000771F881F991F1A9469F7609570958095BA
:1004300090959B01AC01BD01CF010895F894FFCFC9
:10044000524649443A007A65726F002020202020ED
:0E0450002020202020202020202020202000FE
:00000001FF
