:100000000C942A000C943F000C943F000C943F0089
:100010000C943F000C943F000C943F000C943F0064
:100020000C943F000C943F000C943F000C943F0054
:100030000C943F000C943F000C943F000C943F0044
:100040000C943F000C943F000C943F000C943F0034
:100050000C943F0011241FBECFE5D8E0DEBFCDBF1A
:1000600010E0A0E6B0E0E8E5F3E002C005900D92F4
:10007000A636B107D9F70E9441000C94AA010C944E
:100080000000CF92DF92EF92FF920F931F93DF93C6
:10009000CF93CDB7DEB72F970FB6F894DEBF0FBE64
:1000A000CDBF60E875E280E090E00E9446010E94CA
:1000B000D3000E941B0180E060E00E94F10080E616
:1000C00090E00E9406016E010894C11CD11C0F2E05
:1000D000FDE0EF2EFF24F02DEC0EFD1E0E947101BD
:1000E0008230E1F786010E947101F80181938F014E
:1000F000EE15FF05C1F7FAE1FA95F1F700C080E0CF
:1001000061E00E94F100C6010E940601E7CF98B3AA
:10011000282F207F9F70922B98BBC098C19A92E0A5
:100120009A95F1F700C0C198E7ECF0E03197F1F74C
:1001300000C0000098B38295807F9F70892B88BB98
:10014000C19AF2E0FA95F1F700C0C1988FE99FE0FB
:100150000197F1F700C00000089598B3282F207F81
:100160009F70922B98BBC09AC19A92E09A95F1F732
:1001700000C0C198E7ECF0E03197F1F700C0000053
:1001800098B38295807F9F70892B88BBC19AF2E0DB
:10019000FA95F1F700C0C1988FE99FE00197F1F758
:1001A00000C0000008958FEF87BB8FEF91EEA4E0B1
:1001B00081509040A040E1F700C0000083E30E941E
:1001C000870082E30E94870088E20E9487008CE01B
:1001D0000E94870081E00E94870082E80E948700D9
:1001E0000895DF93CF9300D0CDB7DEB790E8998321
:1001F00090EC9A83FE01E60FF11D9181890F0E9418
:1002000087000F900F90CF91DF9108951F93CF93A8
:10021000DF93EC018881882351F010E00E94AD004B
:100220001F5FFE01E10FF11D80818823B9F7DF9187
:10023000CF911F91089581E00E948700089583E384
:1002400089B910BC8AB188618AB980B5866080BDE1
:1002500008955D9BFECF8CB908955F9BFECF8CB156
:1002600008951F93CF93DF93EC018881882351F089
:1002700010E00E9429011F5FFE01E10FF11D808146
:100280008823B9F7DF91CF911F9108952AB1286192
:100290002AB920B5266820BD9B01AC01220F331F6F
:1002A000441F551F220F331F441F551F220F331F9A
:1002B000441F551F220F331F441F551F60E072E17A
:1002C0008AE790E00E948801822F815089B92150ED
:1002D000304040405040232F342F452F552720BD1C
:1002E00008955F9BFECF8CB108958CB95D9BFECFC6
:1002F0000895CF93DF93EC018881882331F0219614
:100300000E94750189918823D9F7DF91CF910895D3
:10031000A1E21A2EAA1BBB1BFD010DC0AA1FBB1F09
:10032000EE1FFF1FA217B307E407F50720F0A21B7B
:10033000B30BE40BF50B661F771F881F991F1A94E8
:1003400069F760957095809590959B01AC01BD0112
:08035000CF010895F894FFCFDE
:06035800524649443A0040
:00000001FF
