:100000000C942A000C9421020C9447000C943D059A
:100010000C9447000C9447000C9447000C94470044
:100020000C9447000C9447000C9447000C94470034
:100030000C9447000C9447000C9447000C94470024
:100040000C9447000C9447000C9447000C94470014
:100050000C94470011241FBECFE5D8E0DEBFCDBF12
:1000600012E0A0E6B0E0E4E0FCE002C005900D92F2
:10007000AA39B107D9F713E0AAE9B2E001C01D928D
:10008000A735B107E1F70E943A040C9400060C94DE
:1000900000008BBB91989498939882E08A95F1F731
:1000A00000C0939A92E09A95F1F700C08FE19EE428
:1000B0000197F1F700C0000008958FEF8ABB1BBACB
:1000C0008B9A899A8C9A939A88E30E9449008CE0D3
:1000D0000E94490008958BBB9198949A939882E06E
:1000E0008A95F1F700C0939A92E09A95F1F700C0D3
:1000F0008FE19EE40197F1F700C0000008956623A8
:1001000021F480580E944900089580540E944900BB
:100110000895CF93DF93EC018881882331F02196F5
:100120000E946B0089918823D9F7DF91CF910895C0
:1001300081E00E9449000895CF93DF93EA010E9475
:100140007F00CE010E948900DF91CF910895109227
:10015000AA02009771F0EAEAF2E02AE030E0B90181
:100160000E94CA05805D8293862F972F0097B9F76A
:1001700002C0E0E6F0E08E2F9F2F0895CF93DF932B
:10018000C5E6D0E080E060E0AE010E949C0080E027
:1001900061E0AE010E949C00DF91CF910895EF9243
:1001A000FF920F931F93CF93DF930F2EF9E3EF2E60
:1001B000F3E0FF2EF02D8701045F1F4F06C00E9461
:1001C000B3058993C017D107D1F70E94B3058230D8
:1001D00011F0E701F4CF8FEC97E00197F1F700C041
:1001E0000000C9E3D3E080E061E0AE010E949C0022
:1001F0008FEF97EAA1E681509040A040E1F700C060
:100200000000CE01DF91CF911F910F91FF90EF90F1
:100210000895CF93DF9310922E0310922D03109226
:10022000B0021092AF02E4E0F0E060ED71E0F09314
:100230003403E09333039F01DC01A20FB31F40910D
:10024000AF025091B002440F551F440F551FEA01F1
:10025000CC0FDD1FCC0FDD1F4C0F5D1F240F351F92
:10026000EB01C20FD31F3C912881321781F4AFEC10
:10027000B7E01197F1F700C0000020912D033091F5
:100280002E032F5F3F4F30932E0320932D03209199
:100290003303309134032F5F3F4F30933403209367
:1002A00033032B30310544F220912D0330912E037E
:1002B0002530310529F48091AF029091B00212C02F
:1002C00010922E0310922D032091AF023091B002B4
:1002D0002F5F3F4F3093B0022093AF02273031059C
:1002E0000CF4A5CFDF91CF910895CF93DF930E94B7
:1002F000BE0080E060E048E750E00E949C00C1EB57
:10030000D2E081E061E0AE010E949C008FEF94E3B7
:10031000ACE081509040A040E1F700C000000E9496
:10032000980080E060E042E850E00E949C00AE014E
:10033000445F5F4F81E061E00E949C008FEF94E397
:10034000ACE081509040A040E1F700C000000E9466
:10035000980080E060E04DE850E00E949C00AE0113
:10036000485E5F4F81E061E00E949C008FEF94E364
:10037000ACE081509040A040E1F700C000000E9436
:10038000980080E060E047E950E00E949C00AE01E8
:100390004C5D5F4F81E061E00E949C008FEF94E331
:1003A000ACE081509040A040E1F700C000000E9406
:1003B000980080E060E042EA50E00E949C00AE01BC
:1003C000405D5F4F81E061E00E949C008FEF94E30D
:1003D000ACE081509040A040E1F700C000000E94D6
:1003E000980080E060E04CEA50E00E949C00AE0182
:1003F000445C5F4F81E061E00E949C008FEF94E3DA
:10040000ACE081509040A040E1F700C000000E94A5
:10041000980080E060E046EB50E00E949C0081E0A4
:1004200061E049EF52E00E949C008FEF94E3ACE062
:1004300081509040A040E1F700C00000DF91CF91D3
:1004400008951F920F920FB60F9211242F933F938E
:100450004F935F936F937F938F939F93AF93BF93CC
:10046000EF93FF930E947501FF91EF91BF91AF91C0
:100470009F918F917F916F915F914F913F912F91BC
:100480000F900FBE0F901F9018958330910509F4BF
:10049000D5C0843091055CF48130910509F452C0D7
:1004A000823091050CF08CC0009771F0BEC1853090
:1004B000910509F43FC1853091050CF4FDC08630EB
:1004C000910509F0B2C174C10E94BE00A09AA89A19
:1004D000A19AA99A80E060E042EC50E00E949C0062
:1004E00081E061E048E551E00E949C008FEF94E3D9
:1004F000ACE081509040A040E1F700C00000A89817
:10050000A9980E94BE0080912B0390912C03019624
:1005100090932C0380932B038130910509F09BC1AC
:10052000E8E5F1E0A1EBB2E0CF010C9621912D932B
:10053000E817F907D9F78CE090E0909334038093A3
:10054000330308950E94BE00A09AA89AA19AA99A7E
:1005500080E060E040ED50E00E949C0081E061E0BE
:1005600044E651E00E949C008FEF94E3ACE08150A0
:100570009040A040E1F700C00000A898A9980E9410
:10058000BE008091290390912A03019690932A033B
:10059000809329038130910509F05DC1E4E6F1E023
:1005A000ADEBB2E0CF010C9621912D93E817F9073E
:1005B000D9F78CE090E0909334038093330308954F
:1005C0000E94BE00A09AA89AA19AA99A80E060E031
:1005D0004FED50E00E949C0081E061E040E751E077
:1005E0000E949C008FEF94E3ACE081509040A040CB
:1005F000E1F700C00000A898A9980E94BE00809171
:100600004F039091500301969093500380934F03B2
:100610008130910509F01FC1E0E7F1E0A9ECB2E0FB
:10062000CF010C9621912D93E817F907D9F78CE0AB
:1006300090E0909334038093330308950E94BE00AA
:10064000A09AD89AA19AA99A80E060E04DEE50E075
:100650000E949C0081E061E04CE751E00E949C0018
:100660008FEF94E3ACE081509040A040E1F700C0F0
:100670000000A898A9980E94BE0080915303909111
:100680005403019690935403809353038130910552
:1006900009F0E1C0ECE7F1E0A5EDB2E0CF010C9686
:1006A00021912D93E817F907D9F78CE090E090930A
:1006B00034038093330308950E94BE00A09AA89A41
:1006C000A19AA99A80E060E04CEF50E00E949C0063
:1006D00081E061E048E851E00E949C008FEF94E3E4
:1006E000ACE081509040A040E1F700C00000A89825
:1006F000A9980E94BE00809135039091360301961F
:1007000090933603809335038130910509F0A3C09F
:10071000E8E8F1E0A1EEB2E0CF010C9621912D9333
:10072000E817F907D9F78CE090E0909334038093B1
:10073000330308950E94BE00A09AA89AA19AA99A8C
:1007400080E060E04AE051E00E949C0081E061E0CE
:1007500044E951E00E949C008FEF94E3ACE08150AB
:100760009040A040E1F700C00000A898A9980E941E
:10077000BE0080912F039091300301969093300337
:1007800080932F038130910509F065C0E4E9F1E021
:10079000ADEEB2E0CF010C9621912D93E817F90749
:1007A000D9F78CE090E0909334038093330308955D
:1007B0000E94BE00A09AA89AA19AA99A80E060E03F
:1007C00048E151E00E949C0081E061E040EA51E094
:1007D0000E949C008FEF94E3ACE081509040A040D9
:1007E000E1F700C00000A898A9980E94BE0080917F
:1007F000AD029091AE0201969093AE028093AD024D
:100800008130910541F5E0EAF1E0A9EFB2E08CEA30
:1008100091E021912D93E817F907D9F78CE090E04A
:10082000909334038093330308950E94BE00A69AE8
:10083000AE9A80E060E048E251E00E949C008FEFB9
:1008400094E3ACE081509040A040E1F700C000008C
:10085000AE980E94BE0008958F988A98BA98C29A5E
:1008600085B7836085BF8BB780668BBF8FB7806885
:100870008FBF0895CF93DF930E945D0060E875E21B
:1008800080E090E00E9488050E942C04C1E3D1E042
:1008900080E060E0AE010E949C000E94CF00282F03
:1008A00080935103909352038FEC97E00197F1F7F7
:1008B00000C00000822F90915203E22FF92FDF0138
:1008C0000D900020E9F79D012D5030402E173F0775
:1008D00021F70E94090190939902809398020E9447
:1008E0004502D6CF8091AB029091AC02009709F0FF
:1008F000C3C080912B0390912C038130910549F462
:100900008091370390913803019690933803809338
:1009100037038091290390912A038130910549F48E
:100920008091370390913803019690933803809318
:10093000370380914F03909150038130910549F422
:1009400080913703909138030196909338038093F8
:10095000370380915303909154038130910549F4FA
:1009600080913703909138030196909338038093D8
:10097000370380913503909136038130910549F416
:1009800080913703909138030196909338038093B8
:10099000370380912F03909130038130910549F402
:1009A0008091370390913803019690933803809398
:1009B00037038091AD029091AE028130910549F4E8
:1009C0008091370390913803019690933803809378
:1009D00037030E94BE0080E060E04EE351E00E94D9
:1009E0009C0080913703909138030E94A700AC01CE
:1009F000909332038093310381E061E00E949C0078
:100A00008FEF94E3ACE081509040A040E1F700C04C
:100A100000000E94BE00209137033091380387E028
:100A200090E0821B930B90935603809355030E9492
:100A3000A70090934E0380934D0380E060E04DE467
:100A400051E00E949C0040914D0350914E0381E083
:100A500061E00E949C0010923803109237031092BC
:100A60005603109255038091AB029091AC0201960F
:100A70009093AC028093AB0208951F920F920FB631
:100A80000F9211242F933F934F935F936F937F9314
:100A90008F939F93AF93BF93EF93FF930E94720442
:100AA000FF91EF91BF91AF919F918F917F916F9146
:100AB0005F914F913F912F910F900FBE0F901F901C
:100AC000189583E389B910BC8AB188618AB980B569
:100AD000866080BD08955D9BFECF8CB908955F9BB5
:100AE000FECF8CB108951F93CF93DF93EC018881E3
:100AF000882351F010E00E946B051F5FFE01E10F9B
:100B0000F11D80818823B9F7DF91CF911F9108955E
:100B10002AB128612AB920B5266820BD9B01AC0105
:100B2000220F331F441F551F220F331F441F551F11
:100B3000220F331F441F551F220F331F441F551F01
:100B400060E072E18AE790E00E94DE05822F81502A
:100B500089B92150304040405040232F342F452F39
:100B6000552720BD08955F9BFECF8CB108958CB9A9
:100B70005D9BFECF0895CF93DF93EC01888188239E
:100B800031F021960E94B70589918823D9F7DF912A
:100B9000CF910895AA1BBB1B51E107C0AA1FBB1F21
:100BA000A617B70710F0A61BB70B881F991F5A95F9
:100BB000A9F780959095BC01CD010895A1E21A2E68
:100BC000AA1BBB1BFD010DC0AA1FBB1FEE1FFF1FF1
:100BD000A217B307E407F50720F0A21BB30BE40B41
:100BE000F50B661F771F881F991F1A9469F7609588
:100BF0007095809590959B01AC01BD01CF01089542
:040C0000F894FFCF96
:100C04007A65726F002020202020202020202020C0
:100C140020202020202020006669727374206F6ECB
:100C240065007365636F6E64206F6E650074686938
:100C34007264206F6E6500666F75727468206F6EE3
:100C440065006669667468206F6E65007369787400
:100C540068206F6E6500736576656E7468206F6ECC
:100C6400650066697273742073747564656E7400CC
:100C74007365636F6E642073747564656E74007459
:100C8400686972642073747564656E7400666F7548
:100C94007274682073747564656E74006669667432
:100CA400682073747564656E740073697874682061
:100CB40073747564656E7400736576656E7468200C
:100CC40073747564656E740077726F6E67206964FF
:100CD4000053686F7720596F75722049440061741E
:100CE40074656E64616E6365206E756D0061627318
:100CF400656E74206E756D006173686F75720000A7
:100D040000000000616D6972000000000000000036
:100D1400616E61730000000000000000736F626880
:100D2400790000000000000065736D61696C0000CB
:100D3400000000006D6F73746166610000000000C4
:100D440065796164000000000000000000000000FC
:100D5400000000000000000000000000000000008F
:100D6400000000000000000000000000000000007F
:100D740034344433313430303842303800000000E9
:100D840000000000454536313134303038423130CE
:100D9400000000000000000031463543313430309B
:100DA4003644334100000000000000003233384173
:100DB400313430303644443000000000000000007C
:100DC4004544394631353030313737300000000082
:100DD400000000003231413631343030384231388D
:100DE400000000000000000034323238304530305A
:100DF400344432390000000000000000000000000C
:100E040000000000000000000000000000000000DE
:100E140000000000000000000000000000000000CE
:100E240000000000000000000000000000000000BE
:0A0E340000000000000000000A00AA
:00000001FF
