:100000000C942A000C9447000C9447000C94470071
:100010000C9447000C9447000C9447000C94470044
:100020000C9447000C9447000C9447000C94470034
:100030000C9447000C9447000C9447000C94470024
:100040000C9447000C9447000C9447000C94470014
:100050000C94470011241FBECFE5D8E0DEBFCDBF12
:1000600010E0A0E6B0E0ECE4F3E002C005900D92F1
:10007000AE37B107D9F710E0AEE7B0E001C01D928E
:10008000AE39B107E1F70E94CF000C94A4010C94A3
:10009000000088BB91989498939882E08A95F1F734
:1000A00000C0939A92E09A95F1F700C08FE19EE428
:1000B0000197F1F700C0000008958FEF87BB18BAD1
:1000C0008B9A899A8C9A939A88E30E9449008CE0D3
:1000D0000E944900089588BB9198949A939882E071
:1000E0008A95F1F700C0939A92E09A95F1F700C0D3
:1000F0008FE19EE40197F1F700C0000008956623A8
:1001000021F480580E944900089580540E944900BB
:100110000895CF93DF93EC018881882331F02196F5
:100120000E946B0089918823D9F7DF91CF910895C0
:1001300081E00E9449000895CF93DF93EA010E9475
:100140007F00CE010E948900DF91CF910895109227
:100150008E00009771F0EEE8F0E02AE030E0B9019F
:100160000E946E01805D8293862F972F0097B9F7CA
:1001700002C0E0E6F0E08E2F9F2F0895CF93DF932B
:10018000C5E6D0E080E060E0AE010E949C0080E027
:1001900061E0AE010E949C00DF91CF910895EF9243
:1001A000FF920F931F93CF93DF930E945D0060E84F
:1001B00075E280E090E00E942C010E94980080E0AF
:1001C00060E048E750E00E949C000F2EFFE8EF2E11
:1001D000F0E0FF2EF02D8701035F1F4F06C00E9445
:1001E00057018993C017D107D1F70E945701823078
:1001F00011F0E701F4CF8AE18A95F1F700C080E0C1
:1002000061E0A7010E949C00F0CF83E389B910BC94
:100210008AB188618AB980B5866080BD08955D9B8A
:10022000FECF8CB908955F9BFECF8CB108951F93CC
:10023000CF93DF93EC018881882351F010E00E9476
:100240000F011F5FFE01E10FF11D80818823B9F7C7
:10025000DF91CF911F9108952AB128612AB920B565
:10026000266820BD9B01AC01220F331F441F551F80
:10027000220F331F441F551F220F331F441F551FCA
:10028000220F331F441F551F60E072E18AE790E0A0
:100290000E948201822F815089B921503040404014
:1002A0005040232F342F452F552720BD08955F9BA5
:1002B000FECF8CB108958CB95D9BFECF0895CF938E
:1002C000DF93EC018881882331F021960E945B0145
:1002D00089918823D9F7DF91CF910895AA1BBB1B81
:1002E00051E107C0AA1FBB1FA617B70710F0A61B36
:1002F000B70B881F991F5A95A9F780959095BC0157
:10030000CD010895A1E21A2EAA1BBB1BFD010DC051
:10031000AA1FBB1FEE1FFF1FA217B307E407F507B5
:1003200020F0A21BB30BE40BF50B661F771F881F91
:10033000991F1A9469F760957095809590959B0127
:0C034000AC01BD01CF010895F894FFCF7F
:10034C007A65726F00202020202020202020202081
:0E035C002020202020202000524649443A0054
:00000001FF
