:100000000C942A000C9447000C9447000C94470071
:100010000C9447000C9447000C9447000C94470044
:100020000C9447000C9447000C9447000C94470034
:100030000C9447000C9447000C9447000C94470024
:100040000C9447000C9447000C9447000C94470014
:100050000C94470011241FBECFE5D8E0DEBFCDBF12
:1000600010E0A0E6B0E0E4E7F2E002C005900D92F7
:10007000AE37B107D9F710E0AEE7B0E001C01D928E
:10008000AE39B107E1F70E94CF000C9438010C940F
:10009000000088BB91989498939882E08A95F1F734
:1000A00000C0939A92E09A95F1F700C08FE19EE428
:1000B0000197F1F700C0000008958FEF87BB18BAD1
:1000C0008B9A899A8C9A939A88E30E9449008CE0D3
:1000D0000E944900089588BB9198949A939882E071
:1000E0008A95F1F700C0939A92E09A95F1F700C0D3
:1000F0008FE19EE40197F1F700C0000008956623A8
:1001000021F480580E944900089580540E944900BB
:100110000895CF93DF93EC018881882331F02196F5
:100120000E946B0089918823D9F7DF91CF910895C0
:1001300081E00E9449000895CF93DF93EA010E9475
:100140007F00CE010E948900DF91CF910895109227
:100150008E00009771F0EEE8F0E02AE030E0B9019F
:100160000E942401805D8293862F972F0097B9F714
:1001700002C0E0E6F0E08E2F9F2F0895CF93DF932B
:10018000C5E6D0E080E060E0AE010E949C0080E027
:1001900061E0AE010E949C00DF91CF910895EF9243
:1001A000FF920F931F93CF93DF930E945D000E94F5
:1001B000FD000E94980080E060E048E750E00E9467
:1001C0009C00C0E0D0E00FE810E0EE24FF2407C060
:1001D0000E940B01F801EC0FFD1F80832196CC30AB
:1001E000D105B4F38AE18A95F1F700C080E061E0BF
:1001F000A8010E949C00E701F2CF83E389B910BCFB
:100200008AB188618AB980B5866080BD08955D9B9A
:10021000FECF8CB908955F9BFECF8CB108951F93DC
:10022000CF93DF93EC018881882351F010E00E9486
:1002300007011F5FFE01E10FF11D80818823B9F7DF
:10024000DF91CF911F910895AA1BBB1B51E107C0FD
:10025000AA1FBB1FA617B70710F0A61BB70B881F56
:10026000991F5A95A9F780959095BC01CD010895E5
:04027000F894FFCF30
:100274007A65726F0020202020202020202020205A
:0E0284002020202020202000524649443A002D
:00000001FF
