:100000000C942A000C9447000C9447000C94470071
:100010000C9447000C9447000C9447000C94470044
:100020000C9447000C9447000C9447000C94470034
:100030000C9447000C9447000C9447000C94470024
:100040000C9447000C9447000C9447000C94470014
:100050000C94470011241FBECFE5D8E0DEBFCDBF12
:1000600010E0A0E6B0E0E4EEF4E002C005900D92EE
:10007000AE3AB107D9F710E0AEEAB0E001C01D9288
:10008000AB3CB107E1F70E94CF000C9470020C94D6
:10009000000085BB91989498939883E08A95F1F736
:1000A0000000939A93E09A95F1F7000087EA91E6B1
:1000B0000197F1F700C0000008958FEF84BB15BAD7
:1000C0008B9A899A8C9A939A88E30E9449008CE0D3
:1000D0000E944900089585BB9198949A939883E073
:1000E0008A95F1F70000939A93E09A95F1F7000052
:1000F00087EA91E60197F1F700C0000008956623B2
:1001000021F480580E944900089580540E944900BB
:100110000895CF93DF93EC018881882331F02196F5
:100120000E946B0089918823D9F7DF91CF910895C0
:1001300081E00E9449000895CF93DF93EA010E9475
:100140007F00CE010E948900DF91CF910895109227
:10015000BE00009771F0EEEBF0E02AE030E0B9016C
:100160000E945C02805D8293862F972F0097B9F7DB
:1001700002C0E0E6F0E08E2F9F2F0895CF93DF932B
:10018000C5E6D0E080E060E0AE010E949C0080E027
:1001900061E0AE010E949C00DF91CF9108950E9422
:1001A00034020E945D000F2EFFE7CF2EF0E0DF2E1D
:1001B000F02D6624772463940F2EFCE7AF2EF0E039
:1001C000BF2EF02D44245524689441F80F2EF8E7F3
:1001D0008F2EF0E09F2EF02DC4E8D0E002E910E071
:1001E0000F2EFFE9EF2EF0E0FF2EF02D0E944202CD
:1001F000833609F45CC0843630F4813671F082367F
:1002000009F0E6C02FC0853609F49BC0853608F496
:1002100073C0863609F0DCC0B8C00E94BE008FEC07
:1002200097E00197F1F700C0000080E060E0A401D2
:100230000E949C008FEC97E00197F1F700C000004E
:100240008091C3009091C40001969093C400809364
:10025000C3008230910509F0BBC07092C400609267
:10026000C300B6C00E94BE008FEC97E00197F1F783
:1002700000C0000080E060E0A5010E949C008FECBF
:1002800097E00197F1F700C000008091C1009091C4
:10029000C20001969093C2008093C1008230910504
:1002A00009F096C07092C2006092C10091C00E9495
:1002B000BE008FEC97E00197F1F700C0000080E0EE
:1002C00060E0A6010E949C008FEC97E00197F1F797
:1002D00000C000008091C7009091C80001969093E3
:1002E000C8008093C7008230910509F071C07092F8
:1002F000C8006092C7006CC00E94BE008FEC97E0FF
:100300000197F1F700C0000080E060E0A4010E94C6
:100310009C008FEC97E00197F1F700C000008091FE
:10032000C3009091C40001969093C4008093C300D1
:100330008330910509F04CC05092C4004092C30034
:1003400047C00E94BE008FEC97E00197F1F700C014
:10035000000080E060E0A5010E949C008FEC97E027
:100360000197F1F700C000008091C1009091C20098
:1003700001969093C2008093C1008330910541F5AE
:100380005092C2004092C10023C00E94BE008FEC78
:1003900097E00197F1F700C0000080E060E0A6015F
:1003A0000E949C008FEC97E00197F1F700C00000DD
:1003B0008091C7009091C80001969093C8008093E7
:1003C000C7008330910521F45092C8004092C700C5
:1003D0008091C3009091C4000E94A7009093C00038
:1003E0008093BF008091C1009091C2000E94A7003D
:1003F0009093C6008093C5008091C7009091C8007B
:100400000E94A7009093CA008093C9000E94BE007A
:1004100080E060E0AE010E949C004091BF005091DE
:10042000C00081E061E00E949C000E94BE0080E06C
:1004300060E0A8010E949C004091C5005091C60058
:1004400081E061E00E949C000E94BE0080E060E0CC
:10045000A7010E949C004091C9005091CA0081E010
:1004600061E00E949C00C2CE83E389B910BC8AB1CE
:1004700088618AB980B5866080BD08955D9BFECF96
:100480008CB908955F9BFECF8CB108950F931F9395
:10049000CF938C01FC018081882351F0C0E00E9441
:1004A0003E02CF5FF801EC0FF11D80818823B9F780
:1004B000CF911F910F910895AA1BBB1B51E107C05B
:1004C000AA1FBB1FA617B70710F0A61BB70B881FE4
:1004D000991F5A95A9F780959095BC01CD01089573
:0404E000F894FFCFBE
:1004E4007A65726F002020202020202020202020E8
:1004F4002020202020202000796573006E6F006E7C
:10050400756C6C006E756D626572206F662079651E
:1005140073006E756D626572206F66206E6F006E7B
:0E052400756D626572206F66206E756C6C00DE
:00000001FF
