:100000000C942A000C9437010C9447000C945A006D
:100010000C9447000C9447000C9447000C94470044
:100020000C9447000C9447000C9447000C94470034
:100030000C9447000C9447000C9447000C94470024
:100040000C9447000C9447000C9447000C94470014
:100050000C94470011241FBECFE5D8E0DEBFCDBF12
:1000600011E0A0E6B0E0E6E4F7E002C005900D92F2
:10007000A231B107D9F711E0A2E1B1E001C01D92B0
:10008000A936B107E1F70E94A8020C94A1030C94D1
:100090000000CF93DF93C0E6D0E080E060E0AE01E7
:1000A0000E94430380E061E0AE010E944303DF91C0
:1000B000CF9108951F920F920FB60F9211242F9394
:1000C0003F934F935F936F937F938F939F93AF93E0
:1000D000BF93CF93DF93EF93FF938091140190919F
:1000E0001501009709F04BC0C9E4D0E0FE01099565
:1000F00080E060E045E750E00E94430380915F01AB
:1001000090E00E944E03AC0190935C0180935B01F0
:1001100081E061E00E9443038FEF94E3ACE0815003
:100120009040A040E1F700C00000FE0109959091C9
:100130005F0184E0891B8093680190E00E944E0378
:10014000909367018093660180E060E044E850E0AE
:100150000E944303409166015091670181E061E094
:100160000E94430310925F01109268018091140174
:100170009091150101969093150180931401FF91C0
:10018000EF91DF91CF91BF91AF919F918F917F912F
:100190006F915F914F913F912F910F900FBE0F90F4
:1001A0001F901895CF93DF930E94490080E060E094
:1001B0004FE850E00E944303C9E2D1E081E061E0F2
:1001C000AE010E9443038FEF99E6A8E18150904071
:1001D000A040E1F700C000000E943F0380E060E023
:1001E00049E950E00E944303AE01465F5F4F81E062
:1001F00061E00E9443038FEF99E6A8E181509040AF
:10020000A040E1F700C000000E943F0380E060E0F2
:1002100044EA50E00E944303AE014C5E5F4F81E030
:1002200061E00E9443038FEF99E6A8E1815090407E
:10023000A040E1F700C000000E943F0380E060E0C2
:100240004EEA50E00E944303AE01425E5F4F81E000
:1002500061E00E9443038FEF90E7A2E0815090405D
:10026000A040E1F700C00000DF91CF9108951F92F8
:100270000F920FB60F9211242F933F934F935F93DA
:100280006F937F938F939F93AF93BF93EF93FF935E
:100290000E94D200FF91EF91BF91AF919F918F91FA
:1002A0007F916F915F914F913F912F910F900FBE72
:1002B0000F901F901895CF93DF938FEF90E7A2E0F8
:1002C00081509040A040E1F700C000000E9449002A
:1002D00020E030E0E0E6F1E0A1ECB0E0CF010596EF
:1002E00051914D91541711F42F5F3F4FE817F907C3
:1002F000B9F7309313012093120185E090E09093B9
:100300005E0180935D0124303105F1F480915F013D
:100310008823D1F4CAEDD0E061E0AE010E9443032E
:10032000FE01A9E2B1E02A9681918D93EC17FD07B9
:10033000D9F78AE090E090935E0180935D0180910F
:100340005F018F5F80935F01109213011092120181
:10035000DF91CF910895CF93DF938FEF90E7A2E0E5
:1003600081509040A040E1F700C000000E94490089
:1003700020E030E0E0E6F1E0A6ECB0E0CF01059649
:1003800051914D91541711F42F5F3F4FE817F90722
:10039000B9F7309313012093120185E090E0909318
:1003A0005E0180935D0124303105F9F480915F0195
:1003B0008130D9F4C4EED0E080E061E0AE010E946B
:1003C0004303FE01A3E3B1E02A9681918D93EC17DC
:1003D000FD07D9F78AE090E090935E0180935D017C
:1003E00080915F018F5F80935F01109213011092E3
:1003F0001201DF91CF910895CF93DF938FEF90E7B4
:10040000A2E081509040A040E1F700C000000E94AF
:10041000490020E030E0E0E6F1E0ABECB0E0CF01F5
:10042000059651914D91541711F42F5F3F4FE817E6
:10043000F907B9F7309313012093120185E090E09A
:1004400090935E0180935D0124303105F9F4809131
:100450005F018230D9F4CEEED0E080E061E0AE0101
:100460000E944303FE01ADE3B1E02A9681918D9392
:10047000EC17FD07D9F78AE090E090935E01809336
:100480005D0180915F018F5F80935F011092130186
:1004900010921201DF91CF910895CF93DF938FEFE8
:1004A00090E7A2E081509040A040E1F700C000003A
:1004B0000E94490020E030E0E0E6F1E0A0EDB0E08D
:1004C000CF01059651914D91541711F42F5F3F4F75
:1004D000E817F907B9F7309313012093120185E06B
:1004E00090E090935E0180935D0124303105F9F432
:1004F00080915F018330D9F4C8EFD0E080E061E003
:10050000AE010E944303FE01A7E4B1E02A96819167
:100510008D93EC17FD07D9F78AE090E090935E0188
:1005200080935D0180915F018F5F80935F011092E6
:10053000130110921201DF91CF91089585B7836066
:1005400085BF8BB780668BBF8FB780688FBF0895DC
:100550000E9404030E9465038F988A98BA98C29AF1
:100560000E949E020F2EF9EBEF2EF0E0FF2EF02DF1
:1005700000E611E010922801109227011092130159
:100580001092120181E061E0A7010E9443031092E2
:100590005E0110925D01C0E0D0E00E947303C00FC5
:1005A000D11F8883C0915D01D0915E012196D093C7
:1005B0005E01C0935D01C530D1057CF3F801019067
:1005C0000020E9F7CF0106978017910799F60E945E
:1005D0005B010E94AB010E94FC010E944D02CACF48
:1005E00085BB91989498939883E08A95F1F70000E1
:1005F000939A93E09A95F1F7000087EA91E60197C4
:10060000F1F700C0000008958FEF84BB15BA8B9AF4
:10061000899A8C9A939A88E30E94F0028CE00E9457
:10062000F002089585BB9198949A939883E08A95F7
:10063000F1F70000939A93E09A95F1F7000087EAAA
:1006400091E60197F1F700C000000895662321F4B8
:1006500080580E94F002089580540E94F00208958C
:10066000CF93DF93EC018881882331F021960E949B
:10067000120389918823D9F7DF91CF91089581E002
:100680000E94F0020895CF93DF93EA010E942603AF
:10069000CE010E943003DF91CF9108951092260180
:1006A000009771F0E6E2F1E02AE030E0B9010E9443
:1006B0008D03805D8293862F972F0097B9F702C034
:1006C000ECE0F1E08E2F9F2F089583E389B910BCF1
:1006D0008AB188618AB980B5866080BD08955D9BC6
:1006E000FECF8CB908955F9BFECF8CB108950F9318
:1006F0001F93CF938C01FC018081882351F0C0E0CF
:100700000E946F03CF5FF801EC0FF11D80818823F9
:10071000B9F7CF911F910F910895AA1BBB1B51E10F
:1007200007C0AA1FBB1FA617B70710F0A61BB70B61
:10073000881F991F5A95A9F780959095BC01CD0106
:060740000895F894FFCFBC
:1007460020202020202020202020202020202020A3
:100756002020202000617474656E64616E636520DC
:100766006E756D00616273656E74206E756D0066E0
:1007760069727374206F6E65007365636F6E6420B3
:100786006F6E65007468697264206F6E6500666FCF
:1007960075727468206F6E6500656E6572204944D7
:1007A6000030786631003078663200307866330083
:1007B600307866340030786635006D6F6174617329
:1007C600656D00006B6F73746100000000006D6F53
:1007D60068616D656400000061686D656400000015
:1007E6000000616C69000000000000007A65726F0D
:0207F600000001
:00000001FF
