:100000000C942A000C9493020C9447000C94F50570
:100010000C9447000C9447000C9447000C94470044
:100020000C9447000C9447000C9447000C94470034
:100030000C9447000C9447000C9447000C94470024
:100040000C9447000C9447000C9447000C94470014
:100050000C94470011241FBECFE5D8E0DEBFCDBF12
:1000600012E0A0E6B0E0E6E9FDE002C005900D92E6
:10007000A636B107D9F713E0A6E6B2E001C01D929B
:10008000A333B107E1F70E945F040C94C9060C94F6
:10009000000085BB91989498939882E08A95F1F737
:1000A00000C0939A92E09A95F1F700C08FE19EE428
:1000B0000197F1F700C0000008958FEF84BB15BAD7
:1000C0008B9A899A8C9A939A88E30E9449008CE0D3
:1000D0000E944900089585BB9198949A939882E074
:1000E0008A95F1F700C0939A92E09A95F1F700C0D3
:1000F0008FE19EE40197F1F700C0000008956623A8
:1001000021F480580E944900089580540E944900BB
:100110000895CF93DF93EC018881882331F02196F5
:100120000E946B0089918823D9F7DF91CF910895C0
:1001300081E00E9449000895CF93DF93EA010E9475
:100140007F00CE010E948900DF91CF910895109227
:100150007602009771F0E6E7F2E02AE030E0B901BC
:100160000E949306805D8293862F972F0097B9F7A0
:1001700002C0E0E6F0E08E2F9F2F0895CF93DF932B
:10018000C5E6D0E080E060E0AE010E949C0080E027
:1001900061E0AE010E949C00DF91CF9108950F9322
:1001A0001F93CF93DF9302C0CF9B04C00E947706BA
:1001B0008233D1F7CF9B45C0109204031092030302
:1001C000C0E0D0E009E013E00E947706C00FD11F25
:1001D0008883C0910303D09104032196D093040334
:1001E000C0930303CC30D1057CF38FEC97E00197EB
:1001F000F1F700C000000E94BE0080E060E048E728
:1002000050E00E949C008FEF94E3ACE0815090405E
:10021000A040E1F700C000000E94BE00C9E0D3E0AA
:1002200080E060E0AE010E949C008FEF94E3ACE0C0
:1002300081509040A040E1F700C000008C2F9D2F1E
:1002400000C0DF91CF911F910F910895CF93DF935D
:10025000BC011092FC021092FB0210927E021092DE
:100260007D02C7E5D1E0109204031092030340E041
:1002700050E0FB01E40FF51F80917D0290917E021A
:100280009C01220F331F820F931F9C01220F331FEB
:10029000220F331F820F931F880F991F840F951F02
:1002A000DE01A80FB91F90818C91981779F48FEC1B
:1002B00097E00197F1F700C000008091FB02909158
:1002C000FC0201969093FC028093FB024091030391
:1002D000509104034F5F5F4F509304034093030317
:1002E0004C30510534F28091FB029091FC028C302D
:1002F000910529F480917D0290917E0211C01092A7
:10030000FC021092FB0280917D0290917E02019688
:1003100090937E0280937D02853091050CF4A3CFEB
:10032000DF91CF910895CF93DF938091FD0290915B
:10033000FE02009709F4F4C08091F9029091FA024C
:100340000097C9F48091F7029091F802009799F410
:100350008091290390912A03009769F480912F03DB
:1003600090913003009739F4809105039091060332
:10037000009709F4C2C080917702909178020097AB
:1003800009F0B1C00E94BE0080E060E041E850E0AA
:100390000E949C008FEF94E3ACE081509040A0401D
:1003A000E1F700C000000E94BE00CFE7D2E080E08D
:1003B00060E0AE010E949C008FEF94E3ACE08150BE
:1003C0009040A040E1F700C000000E94980080E04B
:1003D00060E04BE850E00E949C008FEF94E3ACE0BB
:1003E00081509040A040E1F700C000000E94BE0094
:1003F000AE01445F5F4F80E060E00E949C008FEFA1
:1004000094E3ACE081509040A040E1F700C00000D0
:100410000E94980080E060E046E950E00E949C0065
:100420008FEF94E3ACE081509040A040E1F700C032
:1004300000000E94BE00AE01485E5F4F80E060E0B9
:100440000E949C008FEF94E3ACE081509040A0406C
:10045000E1F700C000000E94980080E060E040EA00
:1004600050E00E949C008FEF94E3ACE081509040FC
:10047000A040E1F700C000000E94BE00AE014C5D4C
:100480005F4F80E060E00E949C008FEF94E3ACE05F
:1004900081509040A040E1F700C000000E94980009
:1004A00080E060E04BEA50E00E949C008FEF94E314
:1004B000ACE081509040A040E1F700C000000E94F5
:1004C000BE00AE01405D5F4F80E060E00E949C0096
:1004D0008FEF94E3ACE081509040A040E1F700C082
:1004E00000000E94BE0080917702909178020196F0
:1004F000909378028093770213C00E94BE0080E040
:1005000060E045EB50E00E949C008FEF94E3ACE08C
:1005100081509040A040E1F700C000000E94BE0062
:10052000DF91CF9108951F920F920FB60F92112471
:100530002F933F934F935F936F937F938F939F93EB
:10054000AF93BF93EF93FF930E949301FF91EF91BD
:10055000BF91AF919F918F917F916F915F914F91DB
:100560003F912F910F900FBE0F901F9018958230E2
:10057000910509F4A5C0833091053CF4009771F012
:100580008130910509F076C152C08330910509F49C
:10059000E0C08430910509F06DC124C10E94BE0005
:1005A000D09AD89A80E060E043EC50E00E949C0032
:1005B0008FEF94E3ACE081509040A040E1F700C0A1
:1005C00000000E94BE0080E060E04DEE51E00E941D
:1005D0009C008FEF94E3ACE081509040A040E1F7A5
:1005E00000C00000D8980E94BE008091F90290914E
:1005F000FA028130910549F001969093FA028093B6
:10060000F9028130910509F04BC1EDEEF1E0AFE761
:10061000B2E0CF010C9621912D93E817F907D9F795
:100620008CE090E0909304038093030308950E946C
:10063000BE00D09AD89A80E060E041ED50E00E9480
:100640009C008FEF94E3ACE081509040A040E1F734
:1006500000C000000E94BE0080E060E049EF51E071
:100660000E949C008FEF94E3ACE081509040A0404A
:10067000E1F700C00000D8980E94BE008091F70208
:100680009091F8028130910549F001969093F8021B
:100690008093F7028130910509F002C1E9EFF1E0A2
:1006A000ABE8B2E0CF010C9621912D93E817F90742
:1006B000D9F78CE090E090930403809303030895AE
:1006C0000E94BE00D09AD89A80E060E040EE50E0F0
:1006D0000E949C008FEF94E3ACE081509040A040DA
:1006E000E1F700C000000E94BE0080E060E045E04D
:1006F00052E00E949C008FEF94E3ACE08150904068
:10070000A040E1F700C00000D8980E94BE00809190
:10071000290390912A038130910549F00196909325
:100720002A03809329038130910509F0B9C0E5E0DF
:10073000F2E0A7E9B2E0CF010C9621912D93E817E2
:10074000F907D9F78CE090E09093040380930303BA
:1007500008950E94BE00D09AD89A80E060E04EEEE4
:1007600050E00E949C008FEF94E3ACE081509040F9
:10077000A040E1F700C000000E94BE0080E060E001
:1007800041E152E00E949C008FEF94E3ACE0815085
:100790009040A040E1F700C00000D8980E94BE0041
:1007A00080912F03909130038130910549F001969B
:1007B0009093300380932F038130910509F070C02E
:1007C000E1E1F2E0A3EAB2E0CF010C9621912D9392
:1007D000E817F907D9F78CE090E090930403809331
:1007E000030308950E94BE00D09AD89A80E060E08A
:1007F0004DEF50E00E949C008FEF94E3ACE08150FD
:100800009040A040E1F700C000000E94BE0080E0E0
:1008100060E04DE152E00E949C008FEF94E3ACE079
:1008200081509040A040E1F700C00000D8980E949D
:10083000BE0080910503909106038130910541F03F
:10084000019690930603809305038130910541F54D
:10085000EDE1F2E0AFEAB2E0CF010C9621912D93E9
:10086000E817F907D9F78CE090E0909304038093A0
:10087000030308950E94BE00D19AD99A80E060E0F7
:100880004BE051E00E949C008FEF94E3ACE081507C
:100890009040A040E1F700C00000D9980E94BE003F
:1008A00008958F988A98BA98C29A85B7836085BF51
:1008B0008BB780668BBF8FB780688FBF0895D7983E
:1008C0000E945D0060E875E280E090E00E944406CE
:1008D0000E94510481E090E09093FE028093FD021B
:1008E00001E010E00F2EF4E1EF2EF1E0FF2EF02DED
:1008F000C4E2D1E0CF9B30C010932C0300932B03B4
:100900000E94BE0080E060E0A7010E949C000E945F
:10091000CF00282F80932D0390932E038FEC97E028
:100920000197F1F700C00000822F90912E03E22F73
:10093000F92FDF010D900020E9F79D012D50304087
:100940002E173F0721F70E942601909356018093AE
:1009500055010E94B702CECF0E94BE00CF99CACFE8
:1009600080E060E0AE010E949C00CF9BF9CFC2CF37
:100970008091FD029091FE02009709F435C18091AB
:10098000F9029091FA020097E9F42091F702309170
:10099000F80221153105B1F42091290330912A0381
:1009A0002115310579F420912F0330913003211561
:1009B000310541F4209105033091060321153105DD
:1009C00009F4CCC02091790230917A0221153105C9
:1009D00009F00AC18130910549F480910703909193
:1009E0000803019690930803809307038091F70210
:1009F0009091F8028130910549F48091070390911C
:100A000008030196909308038093070380912903BC
:100A100090912A038130910549F4809107039091C8
:100A200008030196909308038093070380912F0396
:100A3000909130038130910549F4809107039091A2
:100A400008030196909308038093070380910503A0
:100A5000909106038130910549F4809107039091AC
:100A60000803019690930803809307030E94BE0039
:100A700080E060E044E351E00E949C008091070325
:100A8000909108030E94A7009093020380930103B2
:100A90008FEF94E3ACE081509040A040E1F700C0BC
:100AA00000000E94BE00409101035091020380E0CB
:100AB00060E00E949C008FEF94E3ACE08150904096
:100AC000A040E1F700C000000E94BE002091070393
:100AD0003091080385E090E0821B930B90933203E2
:100AE000809331030E94A7009093280380932703EB
:100AF00080E060E043E451E00E949C008FEF94E3CB
:100B0000ACE081509040A040E1F700C000000E949E
:100B1000BE00409127035091280380E060E00E94CE
:100B20009C008FEF94E3ACE081509040A040E1F74F
:100B300000C000000E94BE0010920803109207033C
:100B400010923203109231038091790290917A02CF
:100B5000019690937A028093790208950E94BE00D4
:100B600080E060E044E351E00E949C008FEF94E35A
:100B7000ACE081509040A040E1F700C000000E942E
:100B8000BE0080E060E04EE451E00E949C008FEFE8
:100B900094E3ACE081509040A040E1F700C0000039
:100BA0000E94BE0080E060E043E451E00E949C00AF
:100BB0008FEF94E3ACE081509040A040E1F700C09B
:100BC00000000E94BE0080E060E043E551E00E942A
:100BD0009C008FEF94E3ACE081509040A040E1F79F
:100BE00000C000000E94BE0008951F920F920FB631
:100BF0000F9211242F933F934F935F936F937F93A3
:100C00008F939F93AF93BF93EF93FF930E94B8048A
:100C1000FF91EF91BF91AF919F918F917F916F91D4
:100C20005F914F913F912F910F900FBE0F901F90AA
:100C3000189583E389B910BC8AB188618AB980B5F7
:100C4000866080BD08955D9BFECF8CB9089502C07B
:100C5000879B02C05F9BFCCF8CB108950F931F93BD
:100C6000CF938C01FC018081882351F0C0E00E9469
:100C70002306CF5FF801EC0FF11D80818823B9F7BF
:100C8000CF911F910F9108950F931F93DC01CB011A
:100C90002AB128612AB920B5266820BD880F991F7E
:100CA000AA1FBB1F880F991FAA1FBB1F9C01AD0164
:100CB000220F331F441F551F220F331F441F551F80
:100CC00060E072E18AE790E00E94A70689019A013C
:100CD000802F815089B90150104020403040012FB1
:100CE000122F232F332700BD1F910F91089502C0AB
:100CF000CF9B04C05F9BFCCF8CB1089580E008952A
:100D00008CB95D9BFECF0895CF93DF93EC01888172
:100D1000882331F021960E94800689918823D9F793
:100D2000DF91CF910895AA1BBB1B51E107C0AA1FF9
:100D3000BB1FA617B70710F0A61BB70B881F991F7C
:100D40005A95A9F780959095BC01CD010895A1E22F
:100D50001A2EAA1BBB1BFD010DC0AA1FBB1FEE1F35
:100D6000FF1FA217B307E407F50720F0A21BB30B80
:100D7000E40BF50B661F771F881F991F1A9469F7FC
:100D800060957095809590959B01AC01BD01CF0158
:060D90000895F894FFCF66
:100D96007A65726F0020202020202020202020202D
:100DA6002020202020202000434F44452069733A0C
:100DB600006669727374206F6E65007365636F6E8B
:100DC60064206F6E65007468697264206F6E6500DA
:100DD600666F75727468206F6E6500666966746802
:100DE600206F6E65004E6F20417474656E64616E8F
:100DF60063650066697273742073747564656E74D6
:100E0600007365636F6E642073747564656E740039
:100E160074686972642073747564656E7400666FB5
:100E2600757274682073747564656E74006669669D
:100E360074682073747564656E740077726F6E677C
:100E460020696400706C6561736520656E746572F7
:100E5600204944004545434520417474656E6461EC
:100E66006E636500617474656E64616E6365206EA1
:100E7600756D00616273656E74206E756D007A65BE
:100E8600726F0035000A003134303036443446374C
:100E9600383445000000000000000000000000009B
:100EA60000000000003134303036443539354437DF
:100EB60044000000000000000000000000000000E8
:100EC6000000003134303036444545393230350083
:100ED600000000000000000000000000000000000C
:100EE6000031343030364445383142384100000054
:100EF60000000000000000000000000000000031BB
:100F06003430303644363037353643000000000082
:100F160000000000000000000000000000466177AD
:100F26007A790000000000000048656E64617779F8
:100F3600000000000045736C616D000000000000B9
:100F460000416264616C6C6168000000004162648B
:100F5600656C6661746168000000000000000000B6
:100F6600000000000000000000000000000000007B
:100F7600000000000000000000000000000000006B
:100F8600000000000000000000000000000000005B
:060F960000000000000055
:00000001FF
